{
  "contractName": "TestContract",
  "abi": [
    {
      "inputs": [],
      "stateMutability": "nonpayable",
      "type": "constructor"
    },
    {
      "anonymous": false,
      "inputs": [
        {
          "indexed": false,
          "internalType": "uint256",
          "name": "newValue",
          "type": "uint256"
        }
      ],
      "name": "ValueSet",
      "type": "event"
    },
    {
      "inputs": [],
      "name": "value",
      "outputs": [
        {
          "internalType": "uint256",
          "name": "",
          "type": "uint256"
        }
      ],
      "stateMutability": "view",
      "type": "function",
      "constant": true
    },
    {
      "inputs": [
        {
          "internalType": "uint256",
          "name": "newValue",
          "type": "uint256"
        }
      ],
      "name": "updateValue",
      "outputs": [],
      "stateMutability": "nonpayable",
      "type": "function"
    }
  ],
  "bytecode": "0x608060405234801561001057600080fd5b5060016000819055507f012c78e2b84325878b1bd9d250d772cfe5bda7722d795f45036fa5e1e6e303fc60005460405161004a9190610066565b60405180910390a161008b565b61006081610081565b82525050565b600060208201905061007b6000830184610057565b92915050565b6000819050919050565b61017d8061009a6000396000f3fe608060405234801561001057600080fd5b50600436106100365760003560e01c80633fa4f2451461003b578063573c0bd314610059575b600080fd5b610043610075565b604051610050919061010b565b60405180910390f35b610073600480360381019061006e91906100d3565b61007b565b005b60005481565b806000819055507f012c78e2b84325878b1bd9d250d772cfe5bda7722d795f45036fa5e1e6e303fc6000546040516100b3919061010b565b60405180910390a150565b6000813590506100cd81610130565b92915050565b6000602082840312156100e557600080fd5b60006100f3848285016100be565b91505092915050565b61010581610126565b82525050565b600060208201905061012060008301846100fc565b92915050565b6000819050919050565b61013981610126565b811461014457600080fd5b5056fea2646970667358221220474b310542ff8cf66195413db17036743a4432bef8da44114aef9a1a20a98c1d64736f6c63430008000033",
  "immutableReferences": {},
  "source": "// SPDX-License-Identifier: MIT\r\npragma solidity ^0.8.0;\r\n\r\ncontract TestContract {\r\n    uint public value;\r\n\r\n    // Define the event\r\n    event ValueSet(uint newValue);\r\n\r\n    constructor() {\r\n        value = 1;\r\n        \r\n        // Emit the ValueSet event to log the initial value\r\n        emit ValueSet(value);\r\n    }\r\n    \r\n    // A sample function to update the value and emit the event\r\n    function updateValue(uint newValue) public {\r\n        value = newValue;\r\n        emit ValueSet(value);\r\n    }\r\n}\r\n",
  "sourcePath": "C:\\Users\\OWN\\Documents\\DEGREE\\SEM8\\FYP4025\\CODE\\Blockchain Based Voting System\\contracts\\Voting.sol",
  "compiler": {
    "name": "solc",
    "version": "0.8.0+commit.c7dfd78e.Emscripten.clang"
  },
  "schemaVersion": "3.4.16",
  "updatedAt": "2024-11-05T14:46:28.796Z",
  "networkType": "ethereum",
  "devdoc": {
    "kind": "dev",
    "methods": {},
    "version": 1
  },
  "userdoc": {
    "kind": "user",
    "methods": {},
    "version": 1
  }
}