{
  "contractName": "VotingSystem",
  "abi": [
    {
      "inputs": [],
      "stateMutability": "nonpayable",
      "type": "constructor"
    },
    {
      "anonymous": false,
      "inputs": [
        {
          "indexed": true,
          "internalType": "address",
          "name": "voter",
          "type": "address"
        },
        {
          "indexed": false,
          "internalType": "uint256",
          "name": "candidateId",
          "type": "uint256"
        }
      ],
      "name": "VoteCast",
      "type": "event"
    },
    {
      "inputs": [],
      "name": "admin",
      "outputs": [
        {
          "internalType": "address",
          "name": "",
          "type": "address"
        }
      ],
      "stateMutability": "view",
      "type": "function",
      "constant": true
    },
    {
      "inputs": [],
      "name": "candidateCount",
      "outputs": [
        {
          "internalType": "uint256",
          "name": "",
          "type": "uint256"
        }
      ],
      "stateMutability": "view",
      "type": "function",
      "constant": true
    },
    {
      "inputs": [
        {
          "internalType": "uint256",
          "name": "",
          "type": "uint256"
        }
      ],
      "name": "candidates",
      "outputs": [
        {
          "internalType": "uint256",
          "name": "id",
          "type": "uint256"
        },
        {
          "internalType": "string",
          "name": "name",
          "type": "string"
        },
        {
          "internalType": "uint256",
          "name": "voteCount",
          "type": "uint256"
        }
      ],
      "stateMutability": "view",
      "type": "function",
      "constant": true
    },
    {
      "inputs": [],
      "name": "voterCount",
      "outputs": [
        {
          "internalType": "uint256",
          "name": "",
          "type": "uint256"
        }
      ],
      "stateMutability": "view",
      "type": "function",
      "constant": true
    },
    {
      "inputs": [
        {
          "internalType": "address",
          "name": "",
          "type": "address"
        }
      ],
      "name": "voters",
      "outputs": [
        {
          "internalType": "bool",
          "name": "hasVoted",
          "type": "bool"
        },
        {
          "internalType": "uint256",
          "name": "vote",
          "type": "uint256"
        }
      ],
      "stateMutability": "view",
      "type": "function",
      "constant": true
    },
    {
      "inputs": [
        {
          "internalType": "string",
          "name": "_name",
          "type": "string"
        }
      ],
      "name": "addCandidate",
      "outputs": [],
      "stateMutability": "nonpayable",
      "type": "function"
    },
    {
      "inputs": [
        {
          "internalType": "uint256",
          "name": "_candidateId",
          "type": "uint256"
        }
      ],
      "name": "castVote",
      "outputs": [],
      "stateMutability": "nonpayable",
      "type": "function"
    },
    {
      "inputs": [
        {
          "internalType": "uint256",
          "name": "_candidateId",
          "type": "uint256"
        }
      ],
      "name": "getCandidate",
      "outputs": [
        {
          "internalType": "uint256",
          "name": "",
          "type": "uint256"
        },
        {
          "internalType": "string",
          "name": "",
          "type": "string"
        },
        {
          "internalType": "uint256",
          "name": "",
          "type": "uint256"
        }
      ],
      "stateMutability": "view",
      "type": "function",
      "constant": true
    }
  ],
  "bytecode": "0x608060405234801561001057600080fd5b50336000806101000a81548173ffffffffffffffffffffffffffffffffffffffff021916908373ffffffffffffffffffffffffffffffffffffffff160217905550610d30806100606000396000f3fe608060405234801561001057600080fd5b50600436106100885760003560e01c8063462e91ec1161005b578063462e91ec1461012b578063a3ec138d14610147578063a9a981a314610178578063f851a4401461019657610088565b80633477ee2e1461008d57806335b8e820146100bf5780633eb76b9c146100f157806342169e481461010d575b600080fd5b6100a760048036038101906100a29190610860565b6101b4565b6040516100b693929190610a6e565b60405180910390f35b6100d960048036038101906100d49190610860565b610266565b6040516100e893929190610a6e565b60405180910390f35b61010b60048036038101906101069190610860565b610350565b005b610115610550565b6040516101229190610a53565b60405180910390f35b6101456004803603810190610140919061081f565b610556565b005b610161600480360381019061015c91906107f6565b610666565b60405161016f9291906109ca565b60405180910390f35b610180610697565b60405161018d9190610a53565b60405180910390f35b61019e61069d565b6040516101ab91906109af565b60405180910390f35b60036020528060005260406000206000915090508060000154908060010180546101dd90610bb3565b80601f016020809104026020016040519081016040528092919081815260200182805461020990610bb3565b80156102565780601f1061022b57610100808354040283529160200191610256565b820191906000526020600020905b81548152906001019060200180831161023957829003601f168201915b5050505050908060020154905083565b6000606060008060036000868152602001908152602001600020604051806060016040529081600082015481526020016001820180546102a590610bb3565b80601f01602080910402602001604051908101604052809291908181526020018280546102d190610bb3565b801561031e5780601f106102f35761010080835404028352916020019161031e565b820191906000526020600020905b81548152906001019060200180831161030157829003601f168201915b505050505081526020016002820154815250509050806000015181602001518260400151935093509350509193909250565b600460003373ffffffffffffffffffffffffffffffffffffffff1673ffffffffffffffffffffffffffffffffffffffff16815260200190815260200160002060000160009054906101000a900460ff16156103e0576040517f08c379a00000000000000000000000000000000000000000000000000000000081526004016103d7906109f3565b60405180910390fd5b6000811180156103f257506001548111155b610431576040517f08c379a000000000000000000000000000000000000000000000000000000000815260040161042890610a33565b60405180910390fd5b6001600460003373ffffffffffffffffffffffffffffffffffffffff1673ffffffffffffffffffffffffffffffffffffffff16815260200190815260200160002060000160006101000a81548160ff02191690831515021790555080600460003373ffffffffffffffffffffffffffffffffffffffff1673ffffffffffffffffffffffffffffffffffffffff168152602001908152602001600020600101819055506003600082815260200190815260200160002060020160008154809291906104fa90610be5565b91905055503373ffffffffffffffffffffffffffffffffffffffff167fa36cc2bebb74db33e9f88110a07ef56e1b31b24b4c4f51b54b1664266e29f45b826040516105459190610a53565b60405180910390a250565b60025481565b60008054906101000a900473ffffffffffffffffffffffffffffffffffffffff1673ffffffffffffffffffffffffffffffffffffffff163373ffffffffffffffffffffffffffffffffffffffff16146105e4576040517f08c379a00000000000000000000000000000000000000000000000000000000081526004016105db90610a13565b60405180910390fd5b600160008154809291906105f790610be5565b91905055506040518060600160405280600154815260200182815260200160008152506003600060015481526020019081526020016000206000820151816000015560208201518160010190805190602001906106559291906106c1565b506040820151816002015590505050565b60046020528060005260406000206000915090508060000160009054906101000a900460ff16908060010154905082565b60015481565b60008054906101000a900473ffffffffffffffffffffffffffffffffffffffff1681565b8280546106cd90610bb3565b90600052602060002090601f0160209004810192826106ef5760008555610736565b82601f1061070857805160ff1916838001178555610736565b82800160010185558215610736579182015b8281111561073557825182559160200191906001019061071a565b5b5090506107439190610747565b5090565b5b80821115610760576000816000905550600101610748565b5090565b600061077761077284610add565b610aac565b90508281526020810184848401111561078f57600080fd5b61079a848285610b71565b509392505050565b6000813590506107b181610ccc565b92915050565b600082601f8301126107c857600080fd5b81356107d8848260208601610764565b91505092915050565b6000813590506107f081610ce3565b92915050565b60006020828403121561080857600080fd5b6000610816848285016107a2565b91505092915050565b60006020828403121561083157600080fd5b600082013567ffffffffffffffff81111561084b57600080fd5b610857848285016107b7565b91505092915050565b60006020828403121561087257600080fd5b6000610880848285016107e1565b91505092915050565b61089281610b29565b82525050565b6108a181610b3b565b82525050565b60006108b282610b0d565b6108bc8185610b18565b93506108cc818560208601610b80565b6108d581610cbb565b840191505092915050565b60006108ed600e83610b18565b91507f416c726561647920766f7465642e0000000000000000000000000000000000006000830152602082019050919050565b600061092d601983610b18565b91507f4f6e6c792061646d696e2063616e2063616c6c20746869732e000000000000006000830152602082019050919050565b600061096d601583610b18565b91507f496e76616c69642063616e6469646174652049442e00000000000000000000006000830152602082019050919050565b6109a981610b67565b82525050565b60006020820190506109c46000830184610889565b92915050565b60006040820190506109df6000830185610898565b6109ec60208301846109a0565b9392505050565b60006020820190508181036000830152610a0c816108e0565b9050919050565b60006020820190508181036000830152610a2c81610920565b9050919050565b60006020820190508181036000830152610a4c81610960565b9050919050565b6000602082019050610a6860008301846109a0565b92915050565b6000606082019050610a8360008301866109a0565b8181036020830152610a9581856108a7565b9050610aa460408301846109a0565b949350505050565b6000604051905081810181811067ffffffffffffffff82111715610ad357610ad2610c8c565b5b8060405250919050565b600067ffffffffffffffff821115610af857610af7610c8c565b5b601f19601f8301169050602081019050919050565b600081519050919050565b600082825260208201905092915050565b6000610b3482610b47565b9050919050565b60008115159050919050565b600073ffffffffffffffffffffffffffffffffffffffff82169050919050565b6000819050919050565b82818337600083830152505050565b60005b83811015610b9e578082015181840152602081019050610b83565b83811115610bad576000848401525b50505050565b60006002820490506001821680610bcb57607f821691505b60208210811415610bdf57610bde610c5d565b5b50919050565b6000610bf082610b67565b91507fffffffffffffffffffffffffffffffffffffffffffffffffffffffffffffffff821415610c2357610c22610c2e565b5b600182019050919050565b7f4e487b7100000000000000000000000000000000000000000000000000000000600052601160045260246000fd5b7f4e487b7100000000000000000000000000000000000000000000000000000000600052602260045260246000fd5b7f4e487b7100000000000000000000000000000000000000000000000000000000600052604160045260246000fd5b6000601f19601f8301169050919050565b610cd581610b29565b8114610ce057600080fd5b50565b610cec81610b67565b8114610cf757600080fd5b5056fea2646970667358221220cf6a8fbb8a2fbcf4fa186b74b228824bc092c7759c68981ac4a7c3ba8b6661a064736f6c63430008000033",
  "immutableReferences": {},
  "source": "// SPDX-License-Identifier: MIT\r\npragma solidity ^0.8.0;\r\n\r\ncontract VotingSystem{\r\n    struct Candidate{\r\n        uint id;\r\n        string name;\r\n        uint voteCount;\r\n    }\r\n\r\n    struct Voter{\r\n        bool hasVoted;\r\n        uint vote;\r\n    }\r\n\r\n    address public admin;\r\n    uint public candidateCount;\r\n    uint public voterCount;\r\n    mapping(uint => Candidate) public candidates;\r\n    mapping(address => Voter) public voters;\r\n\r\n    event VoteCast(address indexed voter,uint candidateId);\r\n\r\n    constructor(){\r\n        admin = msg.sender;\r\n    }\r\n\r\n    modifier onlyAdmin(){\r\n        require(msg.sender == admin,\"Only admin can call this.\");\r\n        _;\r\n    }\r\n\r\n    function addCandidate(string memory _name) public onlyAdmin{\r\n        candidateCount++;\r\n        candidates[candidateCount] = Candidate(candidateCount, _name, 0);\r\n    }\r\n\r\n    function castVote(uint _candidateId) public {\r\n        require(!voters[msg.sender].hasVoted,\"Already voted.\");\r\n        require(_candidateId > 0 && _candidateId <= candidateCount,\"Invalid candidate ID.\");\r\n\r\n        voters[msg.sender].hasVoted = true;\r\n        voters[msg.sender].vote = _candidateId;\r\n\r\n        candidates[_candidateId].voteCount++;\r\n\r\n        emit VoteCast(msg.sender, _candidateId);\r\n    }\r\n\r\n    function getCandidate(uint _candidateId) public view returns (uint, string memory, uint){\r\n        Candidate memory candidate = candidates[_candidateId];\r\n        return (candidate.id, candidate.name, candidate.voteCount);\r\n    }\r\n}\r\n",
  "sourcePath": "C:\\Users\\OWN\\Documents\\DEGREE\\SEM8\\FYP4025\\CODE\\Blockchain Based Voting System\\contracts\\Voting.sol",
  "compiler": {
    "name": "solc",
    "version": "0.8.0+commit.c7dfd78e.Emscripten.clang"
  },
  "schemaVersion": "3.4.16",
  "updatedAt": "2024-11-07T04:40:18.753Z",
  "networkType": "ethereum",
  "devdoc": {
    "kind": "dev",
    "methods": {},
    "version": 1
  },
  "userdoc": {
    "kind": "user",
    "methods": {},
    "version": 1
  }
}