{
  "contractName": "Voting",
  "abi": [
    {
      "inputs": [],
      "stateMutability": "nonpayable",
      "type": "constructor"
    },
    {
      "anonymous": false,
      "inputs": [
        {
          "indexed": false,
          "internalType": "uint256",
          "name": "electionId",
          "type": "uint256"
        },
        {
          "indexed": false,
          "internalType": "uint256",
          "name": "candidateId",
          "type": "uint256"
        }
      ],
      "name": "VoteCast",
      "type": "event"
    },
    {
      "inputs": [],
      "name": "electionCount",
      "outputs": [
        {
          "internalType": "uint256",
          "name": "",
          "type": "uint256"
        }
      ],
      "stateMutability": "view",
      "type": "function"
    },
    {
      "inputs": [
        {
          "internalType": "uint256",
          "name": "",
          "type": "uint256"
        }
      ],
      "name": "elections",
      "outputs": [
        {
          "internalType": "uint256",
          "name": "id",
          "type": "uint256"
        },
        {
          "internalType": "string",
          "name": "name",
          "type": "string"
        },
        {
          "internalType": "uint256",
          "name": "candidateCount",
          "type": "uint256"
        }
      ],
      "stateMutability": "view",
      "type": "function"
    },
    {
      "inputs": [
        {
          "internalType": "address",
          "name": "",
          "type": "address"
        }
      ],
      "name": "hasVoted",
      "outputs": [
        {
          "internalType": "bool",
          "name": "",
          "type": "bool"
        }
      ],
      "stateMutability": "view",
      "type": "function"
    },
    {
      "inputs": [
        {
          "internalType": "string",
          "name": "_name",
          "type": "string"
        }
      ],
      "name": "createElection",
      "outputs": [],
      "stateMutability": "nonpayable",
      "type": "function"
    },
    {
      "inputs": [
        {
          "internalType": "uint256",
          "name": "_electionId",
          "type": "uint256"
        },
        {
          "internalType": "string",
          "name": "_name",
          "type": "string"
        }
      ],
      "name": "addCandidate",
      "outputs": [],
      "stateMutability": "nonpayable",
      "type": "function"
    },
    {
      "inputs": [
        {
          "internalType": "uint256",
          "name": "_electionId",
          "type": "uint256"
        },
        {
          "internalType": "uint256",
          "name": "_candidateId",
          "type": "uint256"
        }
      ],
      "name": "vote",
      "outputs": [],
      "stateMutability": "nonpayable",
      "type": "function"
    },
    {
      "inputs": [
        {
          "internalType": "uint256",
          "name": "_electionId",
          "type": "uint256"
        },
        {
          "internalType": "uint256",
          "name": "_candidateId",
          "type": "uint256"
        }
      ],
      "name": "getCandidate",
      "outputs": [
        {
          "internalType": "string",
          "name": "",
          "type": "string"
        },
        {
          "internalType": "uint256",
          "name": "",
          "type": "uint256"
        }
      ],
      "stateMutability": "view",
      "type": "function"
    }
  ],
  "bytecode": "0x608060405234801561000f575f80fd5b505f600181905550610dc8806100245f395ff3fe608060405234801561000f575f80fd5b506004361061007b575f3560e01c80634bd46448116100595780634bd46448146100e75780635e6fef0114610118578063997d28301461014a578063b384abef146101685761007b565b806309eef43e1461007f57806315cf4a5f146100af5780631750a3d0146100cb575b5f80fd5b610099600480360381019061009491906105e3565b610184565b6040516100a69190610628565b60405180910390f35b6100c960048036038101906100c4919061077d565b6101a1565b005b6100e560048036038101906100e091906107f7565b610213565b005b61010160048036038101906100fc9190610851565b6102a5565b60405161010f929190610918565b60405180910390f35b610132600480360381019061012d9190610946565b61036c565b60405161014193929190610971565b60405180910390f35b610152610417565b60405161015f91906109ad565b60405180910390f35b610182600480360381019061017d9190610851565b61041d565b005b6002602052805f5260405f205f915054906101000a900460ff1681565b60015f8154809291906101b3906109f3565b91905055506001545f8060015481526020019081526020015f205f0181905550805f8060015481526020019081526020015f2060010190816101f59190610c34565b505f805f60015481526020019081526020015f206003018190555050565b5f805f8481526020019081526020015f209050806003015f81548092919061023a906109f3565b91905055506040518060600160405280826003015481526020018381526020015f815250816002015f836003015481526020019081526020015f205f820151815f015560208201518160010190816102929190610c34565b5060408201518160020155905050505050565b60605f805f808681526020019081526020015f206002015f8581526020019081526020015f2090508060010181600201548180546102e290610a67565b80601f016020809104026020016040519081016040528092919081815260200182805461030e90610a67565b80156103595780601f1061033057610100808354040283529160200191610359565b820191905f5260205f20905b81548152906001019060200180831161033c57829003601f168201915b5050505050915092509250509250929050565b5f602052805f5260405f205f91509050805f01549080600101805461039090610a67565b80601f01602080910402602001604051908101604052809291908181526020018280546103bc90610a67565b80156104075780601f106103de57610100808354040283529160200191610407565b820191905f5260205f20905b8154815290600101906020018083116103ea57829003601f168201915b5050505050908060030154905083565b60015481565b60025f3373ffffffffffffffffffffffffffffffffffffffff1673ffffffffffffffffffffffffffffffffffffffff1681526020019081526020015f205f9054906101000a900460ff16156104a7576040517f08c379a000000000000000000000000000000000000000000000000000000000815260040161049e90610d4d565b60405180910390fd5b600160025f3373ffffffffffffffffffffffffffffffffffffffff1673ffffffffffffffffffffffffffffffffffffffff1681526020019081526020015f205f6101000a81548160ff0219169083151502179055505f805f8481526020019081526020015f209050806002015f8381526020019081526020015f206002015f815480929190610535906109f3565b91905055507fc31875ef3ed5138b71a0c1da7e494bc4d2ba4f567084ea481ec9c45f3a93948b838360405161056b929190610d6b565b60405180910390a1505050565b5f604051905090565b5f80fd5b5f80fd5b5f73ffffffffffffffffffffffffffffffffffffffff82169050919050565b5f6105b282610589565b9050919050565b6105c2816105a8565b81146105cc575f80fd5b50565b5f813590506105dd816105b9565b92915050565b5f602082840312156105f8576105f7610581565b5b5f610605848285016105cf565b91505092915050565b5f8115159050919050565b6106228161060e565b82525050565b5f60208201905061063b5f830184610619565b92915050565b5f80fd5b5f80fd5b5f601f19601f8301169050919050565b7f4e487b71000000000000000000000000000000000000000000000000000000005f52604160045260245ffd5b61068f82610649565b810181811067ffffffffffffffff821117156106ae576106ad610659565b5b80604052505050565b5f6106c0610578565b90506106cc8282610686565b919050565b5f67ffffffffffffffff8211156106eb576106ea610659565b5b6106f482610649565b9050602081019050919050565b828183375f83830152505050565b5f61072161071c846106d1565b6106b7565b90508281526020810184848401111561073d5761073c610645565b5b610748848285610701565b509392505050565b5f82601f83011261076457610763610641565b5b813561077484826020860161070f565b91505092915050565b5f6020828403121561079257610791610581565b5b5f82013567ffffffffffffffff8111156107af576107ae610585565b5b6107bb84828501610750565b91505092915050565b5f819050919050565b6107d6816107c4565b81146107e0575f80fd5b50565b5f813590506107f1816107cd565b92915050565b5f806040838503121561080d5761080c610581565b5b5f61081a858286016107e3565b925050602083013567ffffffffffffffff81111561083b5761083a610585565b5b61084785828601610750565b9150509250929050565b5f806040838503121561086757610866610581565b5b5f610874858286016107e3565b9250506020610885858286016107e3565b9150509250929050565b5f81519050919050565b5f82825260208201905092915050565b5f5b838110156108c65780820151818401526020810190506108ab565b5f8484015250505050565b5f6108db8261088f565b6108e58185610899565b93506108f58185602086016108a9565b6108fe81610649565b840191505092915050565b610912816107c4565b82525050565b5f6040820190508181035f83015261093081856108d1565b905061093f6020830184610909565b9392505050565b5f6020828403121561095b5761095a610581565b5b5f610968848285016107e3565b91505092915050565b5f6060820190506109845f830186610909565b818103602083015261099681856108d1565b90506109a56040830184610909565b949350505050565b5f6020820190506109c05f830184610909565b92915050565b7f4e487b71000000000000000000000000000000000000000000000000000000005f52601160045260245ffd5b5f6109fd826107c4565b91507fffffffffffffffffffffffffffffffffffffffffffffffffffffffffffffffff8203610a2f57610a2e6109c6565b5b600182019050919050565b7f4e487b71000000000000000000000000000000000000000000000000000000005f52602260045260245ffd5b5f6002820490506001821680610a7e57607f821691505b602082108103610a9157610a90610a3a565b5b50919050565b5f819050815f5260205f209050919050565b5f6020601f8301049050919050565b5f82821b905092915050565b5f60088302610af37fffffffffffffffffffffffffffffffffffffffffffffffffffffffffffffffff82610ab8565b610afd8683610ab8565b95508019841693508086168417925050509392505050565b5f819050919050565b5f610b38610b33610b2e846107c4565b610b15565b6107c4565b9050919050565b5f819050919050565b610b5183610b1e565b610b65610b5d82610b3f565b848454610ac4565b825550505050565b5f90565b610b79610b6d565b610b84818484610b48565b505050565b5b81811015610ba757610b9c5f82610b71565b600181019050610b8a565b5050565b601f821115610bec57610bbd81610a97565b610bc684610aa9565b81016020851015610bd5578190505b610be9610be185610aa9565b830182610b89565b50505b505050565b5f82821c905092915050565b5f610c0c5f1984600802610bf1565b1980831691505092915050565b5f610c248383610bfd565b9150826002028217905092915050565b610c3d8261088f565b67ffffffffffffffff811115610c5657610c55610659565b5b610c608254610a67565b610c6b828285610bab565b5f60209050601f831160018114610c9c575f8415610c8a578287015190505b610c948582610c19565b865550610cfb565b601f198416610caa86610a97565b5f5b82811015610cd157848901518255600182019150602085019450602081019050610cac565b86831015610cee5784890151610cea601f891682610bfd565b8355505b6001600288020188555050505b505050505050565b7f596f75206861766520616c726561647920766f7465642e0000000000000000005f82015250565b5f610d37601783610899565b9150610d4282610d03565b602082019050919050565b5f6020820190508181035f830152610d6481610d2b565b9050919050565b5f604082019050610d7e5f830185610909565b610d8b6020830184610909565b939250505056fea2646970667358221220781fdc1b85bbb2f53af3a03650558e271e652696b4d5614ff6ab1793233c947e64736f6c63430008150033",
  "immutableReferences": {},
  "source": "// SPDX-License-Identifier: MIT\r\npragma solidity ^0.8.0;\r\n\r\ncontract Voting{\r\n    constructor() {\r\n        electionCount = 0;\r\n    }\r\n\r\n    struct Candidate{\r\n        uint id;\r\n        string name;\r\n        uint voteCount;\r\n    }\r\n\r\n    struct Election{\r\n        uint id;\r\n        string name;\r\n        mapping(uint => Candidate) candidates;\r\n        uint candidateCount;\r\n    }\r\n\r\n    mapping(uint => Election) public elections;\r\n    uint public electionCount;\r\n\r\n    mapping(address => bool) public hasVoted;\r\n\r\n    event VoteCast(uint electionId, uint candidateId);\r\n\r\n    function createElection(string memory _name) public{\r\n        electionCount++;\r\n        elections[electionCount].id = electionCount;\r\n        elections[electionCount].name = _name;\r\n        elections[electionCount].candidateCount = 0;\r\n    }\r\n\r\n    function addCandidate(uint _electionId, string memory _name) public{\r\n        Election storage election = elections[_electionId];\r\n        election.candidateCount++;\r\n        election.candidates[election.candidateCount] = Candidate(election.candidateCount, _name, 0);\r\n    }\r\n\r\n    function vote(uint _electionId, uint _candidateId) public{\r\n        require(!hasVoted[msg.sender], \"You have already voted.\");\r\n        hasVoted[msg.sender] = true;\r\n\r\n        Election storage election = elections[_electionId];\r\n        election.candidates[_candidateId].voteCount++;\r\n\r\n        emit VoteCast(_electionId, _candidateId);\r\n    }\r\n\r\n    function getCandidate(uint _electionId, uint _candidateId) public view returns (string memory, uint){\r\n        Candidate storage candidate = elections[_electionId].candidates[_candidateId];\r\n        return (candidate.name, candidate.voteCount);\r\n    }\r\n}",
  "sourcePath": "C:\\Users\\OWN\\Documents\\DEGREE\\SEM8\\FYP4025\\CODE\\Blockchain Based Voting System\\contracts\\Voting.sol",
  "compiler": {
    "name": "solc",
    "version": "0.8.21+commit.d9974bed.Emscripten.clang"
  },
  "schemaVersion": "3.4.16",
  "updatedAt": "2024-11-05T14:10:00.439Z",
  "devdoc": {
    "kind": "dev",
    "methods": {},
    "version": 1
  },
  "userdoc": {
    "kind": "user",
    "methods": {},
    "version": 1
  }
}